{
  "contractName": "GitGainsEscrow",
  "abi": [
    {
      "inputs": [],
      "stateMutability": "nonpayable",
      "type": "constructor"
    },
    {
      "anonymous": false,
      "inputs": [
        {
          "indexed": true,
          "internalType": "address",
          "name": "owner",
          "type": "address"
        },
        {
          "indexed": true,
          "internalType": "address",
          "name": "approved",
          "type": "address"
        },
        {
          "indexed": true,
          "internalType": "uint256",
          "name": "tokenId",
          "type": "uint256"
        }
      ],
      "name": "Approval",
      "type": "event"
    },
    {
      "anonymous": false,
      "inputs": [
        {
          "indexed": true,
          "internalType": "address",
          "name": "owner",
          "type": "address"
        },
        {
          "indexed": true,
          "internalType": "address",
          "name": "operator",
          "type": "address"
        },
        {
          "indexed": false,
          "internalType": "bool",
          "name": "approved",
          "type": "bool"
        }
      ],
      "name": "ApprovalForAll",
      "type": "event"
    },
    {
      "anonymous": false,
      "inputs": [
        {
          "indexed": false,
          "internalType": "uint256",
          "name": "_fromTokenId",
          "type": "uint256"
        },
        {
          "indexed": false,
          "internalType": "uint256",
          "name": "_toTokenId",
          "type": "uint256"
        }
      ],
      "name": "BatchMetadataUpdate",
      "type": "event"
    },
    {
      "anonymous": false,
      "inputs": [
        {
          "indexed": true,
          "internalType": "uint256",
          "name": "issueId",
          "type": "uint256"
        },
        {
          "indexed": false,
          "internalType": "address",
          "name": "company",
          "type": "address"
        },
        {
          "indexed": false,
          "internalType": "address",
          "name": "developer",
          "type": "address"
        },
        {
          "indexed": false,
          "internalType": "uint256",
          "name": "bounty",
          "type": "uint256"
        }
      ],
      "name": "IssueCreated",
      "type": "event"
    },
    {
      "anonymous": false,
      "inputs": [
        {
          "indexed": true,
          "internalType": "uint256",
          "name": "issueId",
          "type": "uint256"
        },
        {
          "indexed": false,
          "internalType": "address",
          "name": "developer",
          "type": "address"
        },
        {
          "indexed": false,
          "internalType": "uint256",
          "name": "bounty",
          "type": "uint256"
        },
        {
          "indexed": false,
          "internalType": "uint256",
          "name": "nftId",
          "type": "uint256"
        }
      ],
      "name": "IssueResolved",
      "type": "event"
    },
    {
      "anonymous": false,
      "inputs": [
        {
          "indexed": false,
          "internalType": "uint256",
          "name": "_tokenId",
          "type": "uint256"
        }
      ],
      "name": "MetadataUpdate",
      "type": "event"
    },
    {
      "anonymous": false,
      "inputs": [
        {
          "indexed": true,
          "internalType": "address",
          "name": "previousOwner",
          "type": "address"
        },
        {
          "indexed": true,
          "internalType": "address",
          "name": "newOwner",
          "type": "address"
        }
      ],
      "name": "OwnershipTransferred",
      "type": "event"
    },
    {
      "anonymous": false,
      "inputs": [
        {
          "indexed": true,
          "internalType": "address",
          "name": "from",
          "type": "address"
        },
        {
          "indexed": true,
          "internalType": "address",
          "name": "to",
          "type": "address"
        },
        {
          "indexed": true,
          "internalType": "uint256",
          "name": "tokenId",
          "type": "uint256"
        }
      ],
      "name": "Transfer",
      "type": "event"
    },
    {
      "inputs": [
        {
          "internalType": "address",
          "name": "to",
          "type": "address"
        },
        {
          "internalType": "uint256",
          "name": "tokenId",
          "type": "uint256"
        }
      ],
      "name": "approve",
      "outputs": [],
      "stateMutability": "nonpayable",
      "type": "function"
    },
    {
      "inputs": [],
      "name": "backendAddress",
      "outputs": [
        {
          "internalType": "address",
          "name": "",
          "type": "address"
        }
      ],
      "stateMutability": "view",
      "type": "function",
      "constant": true
    },
    {
      "inputs": [
        {
          "internalType": "address",
          "name": "owner",
          "type": "address"
        }
      ],
      "name": "balanceOf",
      "outputs": [
        {
          "internalType": "uint256",
          "name": "",
          "type": "uint256"
        }
      ],
      "stateMutability": "view",
      "type": "function",
      "constant": true
    },
    {
      "inputs": [
        {
          "internalType": "uint256",
          "name": "tokenId",
          "type": "uint256"
        }
      ],
      "name": "getApproved",
      "outputs": [
        {
          "internalType": "address",
          "name": "",
          "type": "address"
        }
      ],
      "stateMutability": "view",
      "type": "function",
      "constant": true
    },
    {
      "inputs": [
        {
          "internalType": "address",
          "name": "owner",
          "type": "address"
        },
        {
          "internalType": "address",
          "name": "operator",
          "type": "address"
        }
      ],
      "name": "isApprovedForAll",
      "outputs": [
        {
          "internalType": "bool",
          "name": "",
          "type": "bool"
        }
      ],
      "stateMutability": "view",
      "type": "function",
      "constant": true
    },
    {
      "inputs": [],
      "name": "issueCounter",
      "outputs": [
        {
          "internalType": "uint256",
          "name": "",
          "type": "uint256"
        }
      ],
      "stateMutability": "view",
      "type": "function",
      "constant": true
    },
    {
      "inputs": [
        {
          "internalType": "uint256",
          "name": "",
          "type": "uint256"
        }
      ],
      "name": "issues",
      "outputs": [
        {
          "internalType": "address payable",
          "name": "company",
          "type": "address"
        },
        {
          "internalType": "address payable",
          "name": "developer",
          "type": "address"
        },
        {
          "internalType": "uint256",
          "name": "bountyAmount",
          "type": "uint256"
        },
        {
          "internalType": "bool",
          "name": "isClaimed",
          "type": "bool"
        }
      ],
      "stateMutability": "view",
      "type": "function",
      "constant": true
    },
    {
      "inputs": [],
      "name": "name",
      "outputs": [
        {
          "internalType": "string",
          "name": "",
          "type": "string"
        }
      ],
      "stateMutability": "view",
      "type": "function",
      "constant": true
    },
    {
      "inputs": [],
      "name": "nftCounter",
      "outputs": [
        {
          "internalType": "uint256",
          "name": "",
          "type": "uint256"
        }
      ],
      "stateMutability": "view",
      "type": "function",
      "constant": true
    },
    {
      "inputs": [],
      "name": "owner",
      "outputs": [
        {
          "internalType": "address",
          "name": "",
          "type": "address"
        }
      ],
      "stateMutability": "view",
      "type": "function",
      "constant": true
    },
    {
      "inputs": [
        {
          "internalType": "uint256",
          "name": "tokenId",
          "type": "uint256"
        }
      ],
      "name": "ownerOf",
      "outputs": [
        {
          "internalType": "address",
          "name": "",
          "type": "address"
        }
      ],
      "stateMutability": "view",
      "type": "function",
      "constant": true
    },
    {
      "inputs": [],
      "name": "renounceOwnership",
      "outputs": [],
      "stateMutability": "nonpayable",
      "type": "function"
    },
    {
      "inputs": [
        {
          "internalType": "address",
          "name": "from",
          "type": "address"
        },
        {
          "internalType": "address",
          "name": "to",
          "type": "address"
        },
        {
          "internalType": "uint256",
          "name": "tokenId",
          "type": "uint256"
        }
      ],
      "name": "safeTransferFrom",
      "outputs": [],
      "stateMutability": "nonpayable",
      "type": "function"
    },
    {
      "inputs": [
        {
          "internalType": "address",
          "name": "from",
          "type": "address"
        },
        {
          "internalType": "address",
          "name": "to",
          "type": "address"
        },
        {
          "internalType": "uint256",
          "name": "tokenId",
          "type": "uint256"
        },
        {
          "internalType": "bytes",
          "name": "data",
          "type": "bytes"
        }
      ],
      "name": "safeTransferFrom",
      "outputs": [],
      "stateMutability": "nonpayable",
      "type": "function"
    },
    {
      "inputs": [
        {
          "internalType": "address",
          "name": "operator",
          "type": "address"
        },
        {
          "internalType": "bool",
          "name": "approved",
          "type": "bool"
        }
      ],
      "name": "setApprovalForAll",
      "outputs": [],
      "stateMutability": "nonpayable",
      "type": "function"
    },
    {
      "inputs": [
        {
          "internalType": "bytes4",
          "name": "interfaceId",
          "type": "bytes4"
        }
      ],
      "name": "supportsInterface",
      "outputs": [
        {
          "internalType": "bool",
          "name": "",
          "type": "bool"
        }
      ],
      "stateMutability": "view",
      "type": "function",
      "constant": true
    },
    {
      "inputs": [],
      "name": "symbol",
      "outputs": [
        {
          "internalType": "string",
          "name": "",
          "type": "string"
        }
      ],
      "stateMutability": "view",
      "type": "function",
      "constant": true
    },
    {
      "inputs": [
        {
          "internalType": "uint256",
          "name": "tokenId",
          "type": "uint256"
        }
      ],
      "name": "tokenURI",
      "outputs": [
        {
          "internalType": "string",
          "name": "",
          "type": "string"
        }
      ],
      "stateMutability": "view",
      "type": "function",
      "constant": true
    },
    {
      "inputs": [
        {
          "internalType": "address",
          "name": "from",
          "type": "address"
        },
        {
          "internalType": "address",
          "name": "to",
          "type": "address"
        },
        {
          "internalType": "uint256",
          "name": "tokenId",
          "type": "uint256"
        }
      ],
      "name": "transferFrom",
      "outputs": [],
      "stateMutability": "nonpayable",
      "type": "function"
    },
    {
      "inputs": [
        {
          "internalType": "address",
          "name": "newOwner",
          "type": "address"
        }
      ],
      "name": "transferOwnership",
      "outputs": [],
      "stateMutability": "nonpayable",
      "type": "function"
    },
    {
      "inputs": [
        {
          "internalType": "address",
          "name": "_backend",
          "type": "address"
        }
      ],
      "name": "setBackendAddress",
      "outputs": [],
      "stateMutability": "nonpayable",
      "type": "function"
    },
    {
      "inputs": [
        {
          "internalType": "address payable",
          "name": "developer",
          "type": "address"
        }
      ],
      "name": "createIssue",
      "outputs": [
        {
          "internalType": "uint256",
          "name": "",
          "type": "uint256"
        }
      ],
      "stateMutability": "payable",
      "type": "function",
      "payable": true
    },
    {
      "inputs": [
        {
          "internalType": "uint256",
          "name": "issueId",
          "type": "uint256"
        },
        {
          "internalType": "string",
          "name": "nftMetadataURI",
          "type": "string"
        }
      ],
      "name": "resolveIssue",
      "outputs": [],
      "stateMutability": "nonpayable",
      "type": "function"
    },
    {
      "inputs": [
        {
          "internalType": "uint256",
          "name": "issueId",
          "type": "uint256"
        }
      ],
      "name": "getIssue",
      "outputs": [
        {
          "internalType": "address",
          "name": "company",
          "type": "address"
        },
        {
          "internalType": "address",
          "name": "developer",
          "type": "address"
        },
        {
          "internalType": "uint256",
          "name": "bountyAmount",
          "type": "uint256"
        },
        {
          "internalType": "bool",
          "name": "isClaimed",
          "type": "bool"
        }
      ],
      "stateMutability": "view",
      "type": "function",
      "constant": true
    }
  ],
  "bytecode": "0x6080604052600060085560006009553480156200001b57600080fd5b506040518060400160405280601481526020017f4769744761696e73436f6e747269627574696f6e0000000000000000000000008152506040518060400160405280600381526020017f474743000000000000000000000000000000000000000000000000000000000081525081600090816200009991906200041c565b508060019081620000ab91906200041c565b505050620000ce620000c2620000d460201b60201c565b620000dc60201b60201c565b62000503565b600033905090565b6000600760009054906101000a900473ffffffffffffffffffffffffffffffffffffffff16905081600760006101000a81548173ffffffffffffffffffffffffffffffffffffffff021916908373ffffffffffffffffffffffffffffffffffffffff1602179055508173ffffffffffffffffffffffffffffffffffffffff168173ffffffffffffffffffffffffffffffffffffffff167f8be0079c531659141344cd1fd0a4f28419497f9722a3daafe3b4186f6b6457e060405160405180910390a35050565b600081519050919050565b7f4e487b7100000000000000000000000000000000000000000000000000000000600052604160045260246000fd5b7f4e487b7100000000000000000000000000000000000000000000000000000000600052602260045260246000fd5b600060028204905060018216806200022457607f821691505b6020821081036200023a5762000239620001dc565b5b50919050565b60008190508160005260206000209050919050565b60006020601f8301049050919050565b600082821b905092915050565b600060088302620002a47fffffffffffffffffffffffffffffffffffffffffffffffffffffffffffffffff8262000265565b620002b0868362000265565b95508019841693508086168417925050509392505050565b6000819050919050565b6000819050919050565b6000620002fd620002f7620002f184620002c8565b620002d2565b620002c8565b9050919050565b6000819050919050565b6200031983620002dc565b62000331620003288262000304565b84845462000272565b825550505050565b600090565b6200034862000339565b620003558184846200030e565b505050565b5b818110156200037d57620003716000826200033e565b6001810190506200035b565b5050565b601f821115620003cc57620003968162000240565b620003a18462000255565b81016020851015620003b1578190505b620003c9620003c08562000255565b8301826200035a565b50505b505050565b600082821c905092915050565b6000620003f160001984600802620003d1565b1980831691505092915050565b60006200040c8383620003de565b9150826002028217905092915050565b6200042782620001a2565b67ffffffffffffffff811115620004435762000442620001ad565b5b6200044f82546200020b565b6200045c82828562000381565b600060209050601f8311600181146200049457600084156200047f578287015190505b6200048b8582620003fe565b865550620004fb565b601f198416620004a48662000240565b60005b82811015620004ce57848901518255600182019150602085019450602081019050620004a7565b86831015620004ee5784890151620004ea601f891682620003de565b8355505b6001600288020188555050505b505050505050565b613a2e80620005136000396000f3fe60806040526004361061014b5760003560e01c8063715018a6116100b6578063b88d4fde1161006f578063b88d4fde146104ad578063bc9f07d6146104d6578063c87b56dd14610501578063e574609e1461053e578063e985e9c514610569578063f2fde38b146105a65761014b565b8063715018a6146103ae5780638da5cb5b146103c557806395d89b41146103f0578063976b31131461041b578063a22cb4651461045b578063b630b427146104845761014b565b80631815ce7d116101085780631815ce7d1461028957806323b872dd146102b257806342842e0e146102db5780635f5091b4146103045780636352211e1461033457806370a08231146103715761014b565b806301ffc9a71461015057806304e15de51461018d57806306fdde03146101cd578063081812fc146101f8578063095ea7b3146102355780630d72d57f1461025e575b600080fd5b34801561015c57600080fd5b506101776004803603810190610172919061249d565b6105cf565b60405161018491906124e5565b60405180910390f35b34801561019957600080fd5b506101b460048036038101906101af9190612536565b610630565b6040516101c494939291906125b3565b60405180910390f35b3480156101d957600080fd5b506101e26106ad565b6040516101ef9190612688565b60405180910390f35b34801561020457600080fd5b5061021f600480360381019061021a9190612536565b61073f565b60405161022c91906126cb565b60405180910390f35b34801561024157600080fd5b5061025c60048036038101906102579190612712565b610785565b005b34801561026a57600080fd5b5061027361089c565b60405161028091906126cb565b60405180910390f35b34801561029557600080fd5b506102b060048036038101906102ab9190612752565b6108c2565b005b3480156102be57600080fd5b506102d960048036038101906102d4919061277f565b61090e565b005b3480156102e757600080fd5b5061030260048036038101906102fd919061277f565b61096e565b005b61031e600480360381019061031991906127fe565b61098e565b60405161032b919061282b565b60405180910390f35b34801561034057600080fd5b5061035b60048036038101906103569190612536565b610b52565b60405161036891906126cb565b60405180910390f35b34801561037d57600080fd5b5061039860048036038101906103939190612752565b610bd8565b6040516103a5919061282b565b60405180910390f35b3480156103ba57600080fd5b506103c3610c8f565b005b3480156103d157600080fd5b506103da610ca3565b6040516103e791906126cb565b60405180910390f35b3480156103fc57600080fd5b50610405610ccd565b6040516104129190612688565b60405180910390f35b34801561042757600080fd5b50610442600480360381019061043d9190612536565b610d5f565b6040516104529493929190612846565b60405180910390f35b34801561046757600080fd5b50610482600480360381019061047d91906128b7565b610e7c565b005b34801561049057600080fd5b506104ab60048036038101906104a69190612a2c565b610e92565b005b3480156104b957600080fd5b506104d460048036038101906104cf9190612b29565b611113565b005b3480156104e257600080fd5b506104eb611175565b6040516104f8919061282b565b60405180910390f35b34801561050d57600080fd5b5061052860048036038101906105239190612536565b61117b565b6040516105359190612688565b60405180910390f35b34801561054a57600080fd5b5061055361128d565b604051610560919061282b565b60405180910390f35b34801561057557600080fd5b50610590600480360381019061058b9190612bac565b611293565b60405161059d91906124e5565b60405180910390f35b3480156105b257600080fd5b506105cd60048036038101906105c89190612752565b611327565b005b6000634906490660e01b7bffffffffffffffffffffffffffffffffffffffffffffffffffffffff1916827bffffffffffffffffffffffffffffffffffffffffffffffffffffffff191614806106295750610628826113aa565b5b9050919050565b600b6020528060005260406000206000915090508060000160009054906101000a900473ffffffffffffffffffffffffffffffffffffffff16908060010160009054906101000a900473ffffffffffffffffffffffffffffffffffffffff16908060020154908060030160009054906101000a900460ff16905084565b6060600080546106bc90612c1b565b80601f01602080910402602001604051908101604052809291908181526020018280546106e890612c1b565b80156107355780601f1061070a57610100808354040283529160200191610735565b820191906000526020600020905b81548152906001019060200180831161071857829003601f168201915b5050505050905090565b600061074a8261148c565b6004600083815260200190815260200160002060009054906101000a900473ffffffffffffffffffffffffffffffffffffffff169050919050565b600061079082610b52565b90508073ffffffffffffffffffffffffffffffffffffffff168373ffffffffffffffffffffffffffffffffffffffff1603610800576040517f08c379a00000000000000000000000000000000000000000000000000000000081526004016107f790612cbe565b60405180910390fd5b8073ffffffffffffffffffffffffffffffffffffffff1661081f6114d7565b73ffffffffffffffffffffffffffffffffffffffff16148061084e575061084d816108486114d7565b611293565b5b61088d576040517f08c379a000000000000000000000000000000000000000000000000000000000815260040161088490612d50565b60405180910390fd5b61089783836114df565b505050565b600a60009054906101000a900473ffffffffffffffffffffffffffffffffffffffff1681565b6108ca611598565b80600a60006101000a81548173ffffffffffffffffffffffffffffffffffffffff021916908373ffffffffffffffffffffffffffffffffffffffff16021790555050565b61091f6109196114d7565b82611616565b61095e576040517f08c379a000000000000000000000000000000000000000000000000000000000815260040161095590612de2565b60405180910390fd5b6109698383836116ab565b505050565b61098983838360405180602001604052806000815250611113565b505050565b60008034116109d2576040517f08c379a00000000000000000000000000000000000000000000000000000000081526004016109c990612e4e565b60405180910390fd5b600860008154809291906109e590612e9d565b919050555060405180608001604052803373ffffffffffffffffffffffffffffffffffffffff1681526020018373ffffffffffffffffffffffffffffffffffffffff16815260200134815260200160001515815250600b6000600854815260200190815260200160002060008201518160000160006101000a81548173ffffffffffffffffffffffffffffffffffffffff021916908373ffffffffffffffffffffffffffffffffffffffff16021790555060208201518160010160006101000a81548173ffffffffffffffffffffffffffffffffffffffff021916908373ffffffffffffffffffffffffffffffffffffffff1602179055506040820151816002015560608201518160030160006101000a81548160ff0219169083151502179055509050506008547f9e787cccbefae9d9336865702bfcc220939c30daddb999b417f01edbe0518a6a338434604051610b4093929190612f44565b60405180910390a26008549050919050565b600080610b5e836119a4565b9050600073ffffffffffffffffffffffffffffffffffffffff168173ffffffffffffffffffffffffffffffffffffffff1603610bcf576040517f08c379a0000000000000000000000000000000000000000000000000000000008152600401610bc690612fc7565b60405180910390fd5b80915050919050565b60008073ffffffffffffffffffffffffffffffffffffffff168273ffffffffffffffffffffffffffffffffffffffff1603610c48576040517f08c379a0000000000000000000000000000000000000000000000000000000008152600401610c3f90613059565b60405180910390fd5b600360008373ffffffffffffffffffffffffffffffffffffffff1673ffffffffffffffffffffffffffffffffffffffff168152602001908152602001600020549050919050565b610c97611598565b610ca160006119e1565b565b6000600760009054906101000a900473ffffffffffffffffffffffffffffffffffffffff16905090565b606060018054610cdc90612c1b565b80601f0160208091040260200160405190810160405280929190818152602001828054610d0890612c1b565b8015610d555780601f10610d2a57610100808354040283529160200191610d55565b820191906000526020600020905b815481529060010190602001808311610d3857829003601f168201915b5050505050905090565b6000806000806000600b60008781526020019081526020016000206040518060800160405290816000820160009054906101000a900473ffffffffffffffffffffffffffffffffffffffff1673ffffffffffffffffffffffffffffffffffffffff1673ffffffffffffffffffffffffffffffffffffffff1681526020016001820160009054906101000a900473ffffffffffffffffffffffffffffffffffffffff1673ffffffffffffffffffffffffffffffffffffffff1673ffffffffffffffffffffffffffffffffffffffff168152602001600282015481526020016003820160009054906101000a900460ff161515151581525050905080600001518160200151826040015183606001519450945094509450509193509193565b610e8e610e876114d7565b8383611aa7565b5050565b600a60009054906101000a900473ffffffffffffffffffffffffffffffffffffffff1673ffffffffffffffffffffffffffffffffffffffff163373ffffffffffffffffffffffffffffffffffffffff161480610f205750610ef1610ca3565b73ffffffffffffffffffffffffffffffffffffffff163373ffffffffffffffffffffffffffffffffffffffff16145b610f5f576040517f08c379a0000000000000000000000000000000000000000000000000000000008152600401610f56906130c5565b60405180910390fd5b6000600b600084815260200190815260200160002090508060030160009054906101000a900460ff1615610fc8576040517f08c379a0000000000000000000000000000000000000000000000000000000008152600401610fbf90613131565b60405180910390fd5b60018160030160006101000a81548160ff0219169083151502179055508060010160009054906101000a900473ffffffffffffffffffffffffffffffffffffffff1673ffffffffffffffffffffffffffffffffffffffff166108fc82600201549081150290604051600060405180830381858888f19350505050158015611053573d6000803e3d6000fd5b506009600081548092919061106790612e9d565b919050555061109c8160010160009054906101000a900473ffffffffffffffffffffffffffffffffffffffff16600954611c13565b6110a860095483611e30565b827f6f27e4e63affec75e52e298728679b278c384305ad95b5a8fe2d00891bb635ce8260010160009054906101000a900473ffffffffffffffffffffffffffffffffffffffff16836002015460095460405161110693929190613151565b60405180910390a2505050565b61112461111e6114d7565b83611616565b611163576040517f08c379a000000000000000000000000000000000000000000000000000000000815260040161115a90612de2565b60405180910390fd5b61116f84848484611ed4565b50505050565b60085481565b60606111868261148c565b60006006600084815260200190815260200160002080546111a690612c1b565b80601f01602080910402602001604051908101604052809291908181526020018280546111d290612c1b565b801561121f5780601f106111f45761010080835404028352916020019161121f565b820191906000526020600020905b81548152906001019060200180831161120257829003601f168201915b505050505090506000611230611f30565b90506000815103611245578192505050611288565b60008251111561127a5780826040516020016112629291906131c4565b60405160208183030381529060405292505050611288565b61128384611f47565b925050505b919050565b60095481565b6000600560008473ffffffffffffffffffffffffffffffffffffffff1673ffffffffffffffffffffffffffffffffffffffff16815260200190815260200160002060008373ffffffffffffffffffffffffffffffffffffffff1673ffffffffffffffffffffffffffffffffffffffff16815260200190815260200160002060009054906101000a900460ff16905092915050565b61132f611598565b600073ffffffffffffffffffffffffffffffffffffffff168173ffffffffffffffffffffffffffffffffffffffff160361139e576040517f08c379a00000000000000000000000000000000000000000000000000000000081526004016113959061325a565b60405180910390fd5b6113a7816119e1565b50565b60007f80ac58cd000000000000000000000000000000000000000000000000000000007bffffffffffffffffffffffffffffffffffffffffffffffffffffffff1916827bffffffffffffffffffffffffffffffffffffffffffffffffffffffff1916148061147557507f5b5e139f000000000000000000000000000000000000000000000000000000007bffffffffffffffffffffffffffffffffffffffffffffffffffffffff1916827bffffffffffffffffffffffffffffffffffffffffffffffffffffffff1916145b80611485575061148482611faf565b5b9050919050565b61149581612019565b6114d4576040517f08c379a00000000000000000000000000000000000000000000000000000000081526004016114cb90612fc7565b60405180910390fd5b50565b600033905090565b816004600083815260200190815260200160002060006101000a81548173ffffffffffffffffffffffffffffffffffffffff021916908373ffffffffffffffffffffffffffffffffffffffff160217905550808273ffffffffffffffffffffffffffffffffffffffff1661155283610b52565b73ffffffffffffffffffffffffffffffffffffffff167f8c5be1e5ebec7d5bd14f71427d1e84f3dd0314c0f7b2291e5b200ac8c7c3b92560405160405180910390a45050565b6115a06114d7565b73ffffffffffffffffffffffffffffffffffffffff166115be610ca3565b73ffffffffffffffffffffffffffffffffffffffff1614611614576040517f08c379a000000000000000000000000000000000000000000000000000000000815260040161160b906132c6565b60405180910390fd5b565b60008061162283610b52565b90508073ffffffffffffffffffffffffffffffffffffffff168473ffffffffffffffffffffffffffffffffffffffff16148061166457506116638185611293565b5b806116a257508373ffffffffffffffffffffffffffffffffffffffff1661168a8461073f565b73ffffffffffffffffffffffffffffffffffffffff16145b91505092915050565b8273ffffffffffffffffffffffffffffffffffffffff166116cb82610b52565b73ffffffffffffffffffffffffffffffffffffffff1614611721576040517f08c379a000000000000000000000000000000000000000000000000000000000815260040161171890613358565b60405180910390fd5b600073ffffffffffffffffffffffffffffffffffffffff168273ffffffffffffffffffffffffffffffffffffffff1603611790576040517f08c379a0000000000000000000000000000000000000000000000000000000008152600401611787906133ea565b60405180910390fd5b61179d838383600161205a565b8273ffffffffffffffffffffffffffffffffffffffff166117bd82610b52565b73ffffffffffffffffffffffffffffffffffffffff1614611813576040517f08c379a000000000000000000000000000000000000000000000000000000000815260040161180a90613358565b60405180910390fd5b6004600082815260200190815260200160002060006101000a81549073ffffffffffffffffffffffffffffffffffffffff02191690556001600360008573ffffffffffffffffffffffffffffffffffffffff1673ffffffffffffffffffffffffffffffffffffffff168152602001908152602001600020600082825403925050819055506001600360008473ffffffffffffffffffffffffffffffffffffffff1673ffffffffffffffffffffffffffffffffffffffff16815260200190815260200160002060008282540192505081905550816002600083815260200190815260200160002060006101000a81548173ffffffffffffffffffffffffffffffffffffffff021916908373ffffffffffffffffffffffffffffffffffffffff160217905550808273ffffffffffffffffffffffffffffffffffffffff168473ffffffffffffffffffffffffffffffffffffffff167fddf252ad1be2c89b69c2b068fc378daa952ba7f163c4a11628f55a4df523b3ef60405160405180910390a461199f8383836001612060565b505050565b60006002600083815260200190815260200160002060009054906101000a900473ffffffffffffffffffffffffffffffffffffffff169050919050565b6000600760009054906101000a900473ffffffffffffffffffffffffffffffffffffffff16905081600760006101000a81548173ffffffffffffffffffffffffffffffffffffffff021916908373ffffffffffffffffffffffffffffffffffffffff1602179055508173ffffffffffffffffffffffffffffffffffffffff168173ffffffffffffffffffffffffffffffffffffffff167f8be0079c531659141344cd1fd0a4f28419497f9722a3daafe3b4186f6b6457e060405160405180910390a35050565b8173ffffffffffffffffffffffffffffffffffffffff168373ffffffffffffffffffffffffffffffffffffffff1603611b15576040517f08c379a0000000000000000000000000000000000000000000000000000000008152600401611b0c90613456565b60405180910390fd5b80600560008573ffffffffffffffffffffffffffffffffffffffff1673ffffffffffffffffffffffffffffffffffffffff16815260200190815260200160002060008473ffffffffffffffffffffffffffffffffffffffff1673ffffffffffffffffffffffffffffffffffffffff16815260200190815260200160002060006101000a81548160ff0219169083151502179055508173ffffffffffffffffffffffffffffffffffffffff168373ffffffffffffffffffffffffffffffffffffffff167f17307eab39ab6107e8899845ad3d59bd9653f200f220920489ca2b5937696c3183604051611c0691906124e5565b60405180910390a3505050565b600073ffffffffffffffffffffffffffffffffffffffff168273ffffffffffffffffffffffffffffffffffffffff1603611c82576040517f08c379a0000000000000000000000000000000000000000000000000000000008152600401611c79906134c2565b60405180910390fd5b611c8b81612019565b15611ccb576040517f08c379a0000000000000000000000000000000000000000000000000000000008152600401611cc29061352e565b60405180910390fd5b611cd960008383600161205a565b611ce281612019565b15611d22576040517f08c379a0000000000000000000000000000000000000000000000000000000008152600401611d199061352e565b60405180910390fd5b6001600360008473ffffffffffffffffffffffffffffffffffffffff1673ffffffffffffffffffffffffffffffffffffffff16815260200190815260200160002060008282540192505081905550816002600083815260200190815260200160002060006101000a81548173ffffffffffffffffffffffffffffffffffffffff021916908373ffffffffffffffffffffffffffffffffffffffff160217905550808273ffffffffffffffffffffffffffffffffffffffff16600073ffffffffffffffffffffffffffffffffffffffff167fddf252ad1be2c89b69c2b068fc378daa952ba7f163c4a11628f55a4df523b3ef60405160405180910390a4611e2c600083836001612060565b5050565b611e3982612019565b611e78576040517f08c379a0000000000000000000000000000000000000000000000000000000008152600401611e6f906135c0565b60405180910390fd5b80600660008481526020019081526020016000209081611e989190613782565b507ff8e1a15aba9398e019f0b49df1a4fde98ee17ae345cb5f6b5e2c27f5033e8ce782604051611ec8919061282b565b60405180910390a15050565b611edf8484846116ab565b611eeb84848484612066565b611f2a576040517f08c379a0000000000000000000000000000000000000000000000000000000008152600401611f21906138c6565b60405180910390fd5b50505050565b606060405180602001604052806000815250905090565b6060611f528261148c565b6000611f5c611f30565b90506000815111611f7c5760405180602001604052806000815250611fa7565b80611f86846121ed565b604051602001611f979291906131c4565b6040516020818303038152906040525b915050919050565b60007f01ffc9a7000000000000000000000000000000000000000000000000000000007bffffffffffffffffffffffffffffffffffffffffffffffffffffffff1916827bffffffffffffffffffffffffffffffffffffffffffffffffffffffff1916149050919050565b60008073ffffffffffffffffffffffffffffffffffffffff1661203b836119a4565b73ffffffffffffffffffffffffffffffffffffffff1614159050919050565b50505050565b50505050565b60006120878473ffffffffffffffffffffffffffffffffffffffff166122bb565b156121e0578373ffffffffffffffffffffffffffffffffffffffff1663150b7a026120b06114d7565b8786866040518563ffffffff1660e01b81526004016120d2949392919061393b565b6020604051808303816000875af192505050801561210e57506040513d601f19601f8201168201806040525081019061210b919061399c565b60015b612190573d806000811461213e576040519150601f19603f3d011682016040523d82523d6000602084013e612143565b606091505b506000815103612188576040517f08c379a000000000000000000000000000000000000000000000000000000000815260040161217f906138c6565b60405180910390fd5b805181602001fd5b63150b7a0260e01b7bffffffffffffffffffffffffffffffffffffffffffffffffffffffff1916817bffffffffffffffffffffffffffffffffffffffffffffffffffffffff1916149150506121e5565b600190505b949350505050565b6060600060016121fc846122de565b01905060008167ffffffffffffffff81111561221b5761221a612901565b5b6040519080825280601f01601f19166020018201604052801561224d5781602001600182028036833780820191505090505b509050600082602001820190505b6001156122b0578080600190039150507f3031323334353637383961626364656600000000000000000000000000000000600a86061a8153600a85816122a4576122a36139c9565b5b0494506000850361225b575b819350505050919050565b6000808273ffffffffffffffffffffffffffffffffffffffff163b119050919050565b600080600090507a184f03e93ff9f4daa797ed6e38ed64bf6a1f010000000000000000831061233c577a184f03e93ff9f4daa797ed6e38ed64bf6a1f0100000000000000008381612332576123316139c9565b5b0492506040810190505b6d04ee2d6d415b85acef81000000008310612379576d04ee2d6d415b85acef8100000000838161236f5761236e6139c9565b5b0492506020810190505b662386f26fc1000083106123a857662386f26fc10000838161239e5761239d6139c9565b5b0492506010810190505b6305f5e10083106123d1576305f5e10083816123c7576123c66139c9565b5b0492506008810190505b61271083106123f65761271083816123ec576123eb6139c9565b5b0492506004810190505b60648310612419576064838161240f5761240e6139c9565b5b0492506002810190505b600a8310612428576001810190505b80915050919050565b6000604051905090565b600080fd5b600080fd5b60007fffffffff0000000000000000000000000000000000000000000000000000000082169050919050565b61247a81612445565b811461248557600080fd5b50565b60008135905061249781612471565b92915050565b6000602082840312156124b3576124b261243b565b5b60006124c184828501612488565b91505092915050565b60008115159050919050565b6124df816124ca565b82525050565b60006020820190506124fa60008301846124d6565b92915050565b6000819050919050565b61251381612500565b811461251e57600080fd5b50565b6000813590506125308161250a565b92915050565b60006020828403121561254c5761254b61243b565b5b600061255a84828501612521565b91505092915050565b600073ffffffffffffffffffffffffffffffffffffffff82169050919050565b600061258e82612563565b9050919050565b61259e81612583565b82525050565b6125ad81612500565b82525050565b60006080820190506125c86000830187612595565b6125d56020830186612595565b6125e260408301856125a4565b6125ef60608301846124d6565b95945050505050565b600081519050919050565b600082825260208201905092915050565b60005b83811015612632578082015181840152602081019050612617565b60008484015250505050565b6000601f19601f8301169050919050565b600061265a826125f8565b6126648185612603565b9350612674818560208601612614565b61267d8161263e565b840191505092915050565b600060208201905081810360008301526126a2818461264f565b905092915050565b60006126b582612563565b9050919050565b6126c5816126aa565b82525050565b60006020820190506126e060008301846126bc565b92915050565b6126ef816126aa565b81146126fa57600080fd5b50565b60008135905061270c816126e6565b92915050565b600080604083850312156127295761272861243b565b5b6000612737858286016126fd565b925050602061274885828601612521565b9150509250929050565b6000602082840312156127685761276761243b565b5b6000612776848285016126fd565b91505092915050565b6000806000606084860312156127985761279761243b565b5b60006127a6868287016126fd565b93505060206127b7868287016126fd565b92505060406127c886828701612521565b9150509250925092565b6127db81612583565b81146127e657600080fd5b50565b6000813590506127f8816127d2565b92915050565b6000602082840312156128145761281361243b565b5b6000612822848285016127e9565b91505092915050565b600060208201905061284060008301846125a4565b92915050565b600060808201905061285b60008301876126bc565b61286860208301866126bc565b61287560408301856125a4565b61288260608301846124d6565b95945050505050565b612894816124ca565b811461289f57600080fd5b50565b6000813590506128b18161288b565b92915050565b600080604083850312156128ce576128cd61243b565b5b60006128dc858286016126fd565b92505060206128ed858286016128a2565b9150509250929050565b600080fd5b600080fd5b7f4e487b7100000000000000000000000000000000000000000000000000000000600052604160045260246000fd5b6129398261263e565b810181811067ffffffffffffffff8211171561295857612957612901565b5b80604052505050565b600061296b612431565b90506129778282612930565b919050565b600067ffffffffffffffff82111561299757612996612901565b5b6129a08261263e565b9050602081019050919050565b82818337600083830152505050565b60006129cf6129ca8461297c565b612961565b9050828152602081018484840111156129eb576129ea6128fc565b5b6129f68482856129ad565b509392505050565b600082601f830112612a1357612a126128f7565b5b8135612a238482602086016129bc565b91505092915050565b60008060408385031215612a4357612a4261243b565b5b6000612a5185828601612521565b925050602083013567ffffffffffffffff811115612a7257612a71612440565b5b612a7e858286016129fe565b9150509250929050565b600067ffffffffffffffff821115612aa357612aa2612901565b5b612aac8261263e565b9050602081019050919050565b6000612acc612ac784612a88565b612961565b905082815260208101848484011115612ae857612ae76128fc565b5b612af38482856129ad565b509392505050565b600082601f830112612b1057612b0f6128f7565b5b8135612b20848260208601612ab9565b91505092915050565b60008060008060808587031215612b4357612b4261243b565b5b6000612b51878288016126fd565b9450506020612b62878288016126fd565b9350506040612b7387828801612521565b925050606085013567ffffffffffffffff811115612b9457612b93612440565b5b612ba087828801612afb565b91505092959194509250565b60008060408385031215612bc357612bc261243b565b5b6000612bd1858286016126fd565b9250506020612be2858286016126fd565b9150509250929050565b7f4e487b7100000000000000000000000000000000000000000000000000000000600052602260045260246000fd5b60006002820490506001821680612c3357607f821691505b602082108103612c4657612c45612bec565b5b50919050565b7f4552433732313a20617070726f76616c20746f2063757272656e74206f776e6560008201527f7200000000000000000000000000000000000000000000000000000000000000602082015250565b6000612ca8602183612603565b9150612cb382612c4c565b604082019050919050565b60006020820190508181036000830152612cd781612c9b565b9050919050565b7f4552433732313a20617070726f76652063616c6c6572206973206e6f7420746f60008201527f6b656e206f776e6572206f7220617070726f76656420666f7220616c6c000000602082015250565b6000612d3a603d83612603565b9150612d4582612cde565b604082019050919050565b60006020820190508181036000830152612d6981612d2d565b9050919050565b7f4552433732313a2063616c6c6572206973206e6f7420746f6b656e206f776e6560008201527f72206f7220617070726f76656400000000000000000000000000000000000000602082015250565b6000612dcc602d83612603565b9150612dd782612d70565b604082019050919050565b60006020820190508181036000830152612dfb81612dbf565b9050919050565b7f426f756e7479206d7573742062652067726561746572207468616e2030000000600082015250565b6000612e38601d83612603565b9150612e4382612e02565b602082019050919050565b60006020820190508181036000830152612e6781612e2b565b9050919050565b7f4e487b7100000000000000000000000000000000000000000000000000000000600052601160045260246000fd5b6000612ea882612500565b91507fffffffffffffffffffffffffffffffffffffffffffffffffffffffffffffffff8203612eda57612ed9612e6e565b5b600182019050919050565b6000819050919050565b6000612f0a612f05612f0084612563565b612ee5565b612563565b9050919050565b6000612f1c82612eef565b9050919050565b6000612f2e82612f11565b9050919050565b612f3e81612f23565b82525050565b6000606082019050612f5960008301866126bc565b612f666020830185612f35565b612f7360408301846125a4565b949350505050565b7f4552433732313a20696e76616c696420746f6b656e2049440000000000000000600082015250565b6000612fb1601883612603565b9150612fbc82612f7b565b602082019050919050565b60006020820190508181036000830152612fe081612fa4565b9050919050565b7f4552433732313a2061646472657373207a65726f206973206e6f74206120766160008201527f6c6964206f776e65720000000000000000000000000000000000000000000000602082015250565b6000613043602983612603565b915061304e82612fe7565b604082019050919050565b6000602082019050818103600083015261307281613036565b9050919050565b7f4e6f7420617574686f72697a6564000000000000000000000000000000000000600082015250565b60006130af600e83612603565b91506130ba82613079565b602082019050919050565b600060208201905081810360008301526130de816130a2565b9050919050565b7f497373756520616c726561647920636c61696d65640000000000000000000000600082015250565b600061311b601583612603565b9150613126826130e5565b602082019050919050565b6000602082019050818103600083015261314a8161310e565b9050919050565b60006060820190506131666000830186612f35565b61317360208301856125a4565b61318060408301846125a4565b949350505050565b600081905092915050565b600061319e826125f8565b6131a88185613188565b93506131b8818560208601612614565b80840191505092915050565b60006131d08285613193565b91506131dc8284613193565b91508190509392505050565b7f4f776e61626c653a206e6577206f776e657220697320746865207a65726f206160008201527f6464726573730000000000000000000000000000000000000000000000000000602082015250565b6000613244602683612603565b915061324f826131e8565b604082019050919050565b6000602082019050818103600083015261327381613237565b9050919050565b7f4f776e61626c653a2063616c6c6572206973206e6f7420746865206f776e6572600082015250565b60006132b0602083612603565b91506132bb8261327a565b602082019050919050565b600060208201905081810360008301526132df816132a3565b9050919050565b7f4552433732313a207472616e736665722066726f6d20696e636f72726563742060008201527f6f776e6572000000000000000000000000000000000000000000000000000000602082015250565b6000613342602583612603565b915061334d826132e6565b604082019050919050565b6000602082019050818103600083015261337181613335565b9050919050565b7f4552433732313a207472616e7366657220746f20746865207a65726f2061646460008201527f7265737300000000000000000000000000000000000000000000000000000000602082015250565b60006133d4602483612603565b91506133df82613378565b604082019050919050565b60006020820190508181036000830152613403816133c7565b9050919050565b7f4552433732313a20617070726f766520746f2063616c6c657200000000000000600082015250565b6000613440601983612603565b915061344b8261340a565b602082019050919050565b6000602082019050818103600083015261346f81613433565b9050919050565b7f4552433732313a206d696e7420746f20746865207a65726f2061646472657373600082015250565b60006134ac602083612603565b91506134b782613476565b602082019050919050565b600060208201905081810360008301526134db8161349f565b9050919050565b7f4552433732313a20746f6b656e20616c7265616479206d696e74656400000000600082015250565b6000613518601c83612603565b9150613523826134e2565b602082019050919050565b600060208201905081810360008301526135478161350b565b9050919050565b7f45524337323155524953746f726167653a2055524920736574206f66206e6f6e60008201527f6578697374656e7420746f6b656e000000000000000000000000000000000000602082015250565b60006135aa602e83612603565b91506135b58261354e565b604082019050919050565b600060208201905081810360008301526135d98161359d565b9050919050565b60008190508160005260206000209050919050565b60006020601f8301049050919050565b600082821b905092915050565b6000600883026136427fffffffffffffffffffffffffffffffffffffffffffffffffffffffffffffffff82613605565b61364c8683613605565b95508019841693508086168417925050509392505050565b600061367f61367a61367584612500565b612ee5565b612500565b9050919050565b6000819050919050565b61369983613664565b6136ad6136a582613686565b848454613612565b825550505050565b600090565b6136c26136b5565b6136cd818484613690565b505050565b5b818110156136f1576136e66000826136ba565b6001810190506136d3565b5050565b601f82111561373657613707816135e0565b613710846135f5565b8101602085101561371f578190505b61373361372b856135f5565b8301826136d2565b50505b505050565b600082821c905092915050565b60006137596000198460080261373b565b1980831691505092915050565b60006137728383613748565b9150826002028217905092915050565b61378b826125f8565b67ffffffffffffffff8111156137a4576137a3612901565b5b6137ae8254612c1b565b6137b98282856136f5565b600060209050601f8311600181146137ec57600084156137da578287015190505b6137e48582613766565b86555061384c565b601f1984166137fa866135e0565b60005b82811015613822578489015182556001820191506020850194506020810190506137fd565b8683101561383f578489015161383b601f891682613748565b8355505b6001600288020188555050505b505050505050565b7f4552433732313a207472616e7366657220746f206e6f6e20455243373231526560008201527f63656976657220696d706c656d656e7465720000000000000000000000000000602082015250565b60006138b0603283612603565b91506138bb82613854565b604082019050919050565b600060208201905081810360008301526138df816138a3565b9050919050565b600081519050919050565b600082825260208201905092915050565b600061390d826138e6565b61391781856138f1565b9350613927818560208601612614565b6139308161263e565b840191505092915050565b600060808201905061395060008301876126bc565b61395d60208301866126bc565b61396a60408301856125a4565b818103606083015261397c8184613902565b905095945050505050565b60008151905061399681612471565b92915050565b6000602082840312156139b2576139b161243b565b5b60006139c084828501613987565b91505092915050565b7f4e487b7100000000000000000000000000000000000000000000000000000000600052601260045260246000fdfea264697066735822122015f937913a895c6a15f9a56a7af48e29083436d812cd9208ede1f5ae428b87b264736f6c63430008130033",
  "immutableReferences": {},
  "source": "// SPDX-License-Identifier: MIT\r\npragma solidity ^0.8.19;\r\n\r\nimport \"@openzeppelin/contracts/token/ERC721/extensions/ERC721URIStorage.sol\";\r\nimport \"@openzeppelin/contracts/access/Ownable.sol\";\r\n\r\ncontract GitGainsEscrow is ERC721URIStorage, Ownable {\r\n    uint256 public issueCounter = 0;\r\n    uint256 public nftCounter = 0;\r\n\r\n    address public backendAddress; // GitHub webhook handler (off-chain)\r\n\r\n    struct Issue {\r\n        address payable company;\r\n        address payable developer;\r\n        uint256 bountyAmount;\r\n        bool isClaimed;\r\n    }\r\n\r\n    mapping(uint256 => Issue) public issues;\r\n\r\n    event IssueCreated(uint256 indexed issueId, address company, address developer, uint256 bounty);\r\n    event IssueResolved(uint256 indexed issueId, address developer, uint256 bounty, uint256 nftId);\r\n\r\n    constructor() ERC721(\"GitGainsContribution\", \"GGC\") {}\r\n\r\n    modifier onlyBackendOrOwner() {\r\n        require(\r\n            msg.sender == backendAddress || msg.sender == owner(),\r\n            \"Not authorized\"\r\n        );\r\n        _;\r\n    }\r\n\r\n    function setBackendAddress(address _backend) external onlyOwner {\r\n        backendAddress = _backend;\r\n    }\r\n\r\n    function createIssue(address payable developer) external payable returns (uint256) {\r\n        require(msg.value > 0, \"Bounty must be greater than 0\");\r\n\r\n        issueCounter++;\r\n        issues[issueCounter] = Issue(payable(msg.sender), developer, msg.value, false);\r\n\r\n        emit IssueCreated(issueCounter, msg.sender, developer, msg.value);\r\n        return issueCounter;\r\n    }\r\n\r\n    function resolveIssue(uint256 issueId, string memory nftMetadataURI) external onlyBackendOrOwner {\r\n        Issue storage issue = issues[issueId];\r\n        require(!issue.isClaimed, \"Issue already claimed\");\r\n\r\n        issue.isClaimed = true;\r\n\r\n        // Send bounty to developer\r\n        issue.developer.transfer(issue.bountyAmount);\r\n\r\n        // Mint NFT as proof of contribution\r\n        nftCounter++;\r\n        _mint(issue.developer, nftCounter);\r\n        _setTokenURI(nftCounter, nftMetadataURI);\r\n\r\n        emit IssueResolved(issueId, issue.developer, issue.bountyAmount, nftCounter);\r\n    }\r\n\r\n    function getIssue(uint256 issueId)\r\n        public\r\n        view\r\n        returns (address company, address developer, uint256 bountyAmount, bool isClaimed)\r\n    {\r\n        Issue memory i = issues[issueId];\r\n        return (i.company, i.developer, i.bountyAmount, i.isClaimed);\r\n    }\r\n}\r\n",
  "sourcePath": "C:\\Build With India\\GitGains\\contracts\\GitGainsEscrow.sol",
  "compiler": {
    "name": "solc",
    "version": "0.8.19+commit.7dd6d404.Emscripten.clang"
  },
  "schemaVersion": "3.4.16",
  "updatedAt": "2025-04-06T07:12:01.720Z",
  "networkType": "ethereum",
  "devdoc": {
    "events": {
      "Approval(address,address,uint256)": {
        "details": "Emitted when `owner` enables `approved` to manage the `tokenId` token."
      },
      "ApprovalForAll(address,address,bool)": {
        "details": "Emitted when `owner` enables or disables (`approved`) `operator` to manage all of its assets."
      },
      "BatchMetadataUpdate(uint256,uint256)": {
        "details": "This event emits when the metadata of a range of tokens is changed. So that the third-party platforms such as NFT market could timely update the images and related attributes of the NFTs."
      },
      "MetadataUpdate(uint256)": {
        "details": "This event emits when the metadata of a token is changed. So that the third-party platforms such as NFT market could timely update the images and related attributes of the NFT."
      },
      "Transfer(address,address,uint256)": {
        "details": "Emitted when `tokenId` token is transferred from `from` to `to`."
      }
    },
    "kind": "dev",
    "methods": {
      "approve(address,uint256)": {
        "details": "See {IERC721-approve}."
      },
      "balanceOf(address)": {
        "details": "See {IERC721-balanceOf}."
      },
      "getApproved(uint256)": {
        "details": "See {IERC721-getApproved}."
      },
      "isApprovedForAll(address,address)": {
        "details": "See {IERC721-isApprovedForAll}."
      },
      "name()": {
        "details": "See {IERC721Metadata-name}."
      },
      "owner()": {
        "details": "Returns the address of the current owner."
      },
      "ownerOf(uint256)": {
        "details": "See {IERC721-ownerOf}."
      },
      "renounceOwnership()": {
        "details": "Leaves the contract without owner. It will not be possible to call `onlyOwner` functions. Can only be called by the current owner. NOTE: Renouncing ownership will leave the contract without an owner, thereby disabling any functionality that is only available to the owner."
      },
      "safeTransferFrom(address,address,uint256)": {
        "details": "See {IERC721-safeTransferFrom}."
      },
      "safeTransferFrom(address,address,uint256,bytes)": {
        "details": "See {IERC721-safeTransferFrom}."
      },
      "setApprovalForAll(address,bool)": {
        "details": "See {IERC721-setApprovalForAll}."
      },
      "supportsInterface(bytes4)": {
        "details": "See {IERC165-supportsInterface}"
      },
      "symbol()": {
        "details": "See {IERC721Metadata-symbol}."
      },
      "tokenURI(uint256)": {
        "details": "See {IERC721Metadata-tokenURI}."
      },
      "transferFrom(address,address,uint256)": {
        "details": "See {IERC721-transferFrom}."
      },
      "transferOwnership(address)": {
        "details": "Transfers ownership of the contract to a new account (`newOwner`). Can only be called by the current owner."
      }
    },
    "version": 1
  },
  "userdoc": {
    "kind": "user",
    "methods": {},
    "version": 1
  }
}