{
  "contractName": "GitGainsEscrow",
  "abi": [
    {
      "inputs": [],
      "stateMutability": "nonpayable",
      "type": "constructor"
    },
    {
      "anonymous": false,
      "inputs": [
        {
          "indexed": true,
          "internalType": "address",
          "name": "owner",
          "type": "address"
        },
        {
          "indexed": true,
          "internalType": "address",
          "name": "approved",
          "type": "address"
        },
        {
          "indexed": true,
          "internalType": "uint256",
          "name": "tokenId",
          "type": "uint256"
        }
      ],
      "name": "Approval",
      "type": "event"
    },
    {
      "anonymous": false,
      "inputs": [
        {
          "indexed": true,
          "internalType": "address",
          "name": "owner",
          "type": "address"
        },
        {
          "indexed": true,
          "internalType": "address",
          "name": "operator",
          "type": "address"
        },
        {
          "indexed": false,
          "internalType": "bool",
          "name": "approved",
          "type": "bool"
        }
      ],
      "name": "ApprovalForAll",
      "type": "event"
    },
    {
      "anonymous": false,
      "inputs": [
        {
          "indexed": false,
          "internalType": "uint256",
          "name": "_fromTokenId",
          "type": "uint256"
        },
        {
          "indexed": false,
          "internalType": "uint256",
          "name": "_toTokenId",
          "type": "uint256"
        }
      ],
      "name": "BatchMetadataUpdate",
      "type": "event"
    },
    {
      "anonymous": false,
      "inputs": [
        {
          "indexed": false,
          "internalType": "uint256",
          "name": "_tokenId",
          "type": "uint256"
        }
      ],
      "name": "MetadataUpdate",
      "type": "event"
    },
    {
      "anonymous": false,
      "inputs": [
        {
          "indexed": true,
          "internalType": "address",
          "name": "previousOwner",
          "type": "address"
        },
        {
          "indexed": true,
          "internalType": "address",
          "name": "newOwner",
          "type": "address"
        }
      ],
      "name": "OwnershipTransferred",
      "type": "event"
    },
    {
      "anonymous": false,
      "inputs": [
        {
          "indexed": true,
          "internalType": "address",
          "name": "from",
          "type": "address"
        },
        {
          "indexed": true,
          "internalType": "address",
          "name": "to",
          "type": "address"
        },
        {
          "indexed": true,
          "internalType": "uint256",
          "name": "tokenId",
          "type": "uint256"
        }
      ],
      "name": "Transfer",
      "type": "event"
    },
    {
      "inputs": [
        {
          "internalType": "address",
          "name": "to",
          "type": "address"
        },
        {
          "internalType": "uint256",
          "name": "tokenId",
          "type": "uint256"
        }
      ],
      "name": "approve",
      "outputs": [],
      "stateMutability": "nonpayable",
      "type": "function"
    },
    {
      "inputs": [],
      "name": "backendAddress",
      "outputs": [
        {
          "internalType": "address",
          "name": "",
          "type": "address"
        }
      ],
      "stateMutability": "view",
      "type": "function",
      "constant": true
    },
    {
      "inputs": [
        {
          "internalType": "address",
          "name": "owner",
          "type": "address"
        }
      ],
      "name": "balanceOf",
      "outputs": [
        {
          "internalType": "uint256",
          "name": "",
          "type": "uint256"
        }
      ],
      "stateMutability": "view",
      "type": "function",
      "constant": true
    },
    {
      "inputs": [
        {
          "internalType": "uint256",
          "name": "tokenId",
          "type": "uint256"
        }
      ],
      "name": "getApproved",
      "outputs": [
        {
          "internalType": "address",
          "name": "",
          "type": "address"
        }
      ],
      "stateMutability": "view",
      "type": "function",
      "constant": true
    },
    {
      "inputs": [
        {
          "internalType": "address",
          "name": "owner",
          "type": "address"
        },
        {
          "internalType": "address",
          "name": "operator",
          "type": "address"
        }
      ],
      "name": "isApprovedForAll",
      "outputs": [
        {
          "internalType": "bool",
          "name": "",
          "type": "bool"
        }
      ],
      "stateMutability": "view",
      "type": "function",
      "constant": true
    },
    {
      "inputs": [],
      "name": "issueCounter",
      "outputs": [
        {
          "internalType": "uint256",
          "name": "",
          "type": "uint256"
        }
      ],
      "stateMutability": "view",
      "type": "function",
      "constant": true
    },
    {
      "inputs": [
        {
          "internalType": "uint256",
          "name": "",
          "type": "uint256"
        }
      ],
      "name": "issues",
      "outputs": [
        {
          "internalType": "address payable",
          "name": "company",
          "type": "address"
        },
        {
          "internalType": "address payable",
          "name": "developer",
          "type": "address"
        },
        {
          "internalType": "uint256",
          "name": "bountyAmount",
          "type": "uint256"
        },
        {
          "internalType": "bool",
          "name": "isClaimed",
          "type": "bool"
        }
      ],
      "stateMutability": "view",
      "type": "function",
      "constant": true
    },
    {
      "inputs": [],
      "name": "name",
      "outputs": [
        {
          "internalType": "string",
          "name": "",
          "type": "string"
        }
      ],
      "stateMutability": "view",
      "type": "function",
      "constant": true
    },
    {
      "inputs": [],
      "name": "nftCounter",
      "outputs": [
        {
          "internalType": "uint256",
          "name": "",
          "type": "uint256"
        }
      ],
      "stateMutability": "view",
      "type": "function",
      "constant": true
    },
    {
      "inputs": [],
      "name": "owner",
      "outputs": [
        {
          "internalType": "address",
          "name": "",
          "type": "address"
        }
      ],
      "stateMutability": "view",
      "type": "function",
      "constant": true
    },
    {
      "inputs": [
        {
          "internalType": "uint256",
          "name": "tokenId",
          "type": "uint256"
        }
      ],
      "name": "ownerOf",
      "outputs": [
        {
          "internalType": "address",
          "name": "",
          "type": "address"
        }
      ],
      "stateMutability": "view",
      "type": "function",
      "constant": true
    },
    {
      "inputs": [],
      "name": "renounceOwnership",
      "outputs": [],
      "stateMutability": "nonpayable",
      "type": "function"
    },
    {
      "inputs": [
        {
          "internalType": "address",
          "name": "from",
          "type": "address"
        },
        {
          "internalType": "address",
          "name": "to",
          "type": "address"
        },
        {
          "internalType": "uint256",
          "name": "tokenId",
          "type": "uint256"
        }
      ],
      "name": "safeTransferFrom",
      "outputs": [],
      "stateMutability": "nonpayable",
      "type": "function"
    },
    {
      "inputs": [
        {
          "internalType": "address",
          "name": "from",
          "type": "address"
        },
        {
          "internalType": "address",
          "name": "to",
          "type": "address"
        },
        {
          "internalType": "uint256",
          "name": "tokenId",
          "type": "uint256"
        },
        {
          "internalType": "bytes",
          "name": "data",
          "type": "bytes"
        }
      ],
      "name": "safeTransferFrom",
      "outputs": [],
      "stateMutability": "nonpayable",
      "type": "function"
    },
    {
      "inputs": [
        {
          "internalType": "address",
          "name": "operator",
          "type": "address"
        },
        {
          "internalType": "bool",
          "name": "approved",
          "type": "bool"
        }
      ],
      "name": "setApprovalForAll",
      "outputs": [],
      "stateMutability": "nonpayable",
      "type": "function"
    },
    {
      "inputs": [
        {
          "internalType": "bytes4",
          "name": "interfaceId",
          "type": "bytes4"
        }
      ],
      "name": "supportsInterface",
      "outputs": [
        {
          "internalType": "bool",
          "name": "",
          "type": "bool"
        }
      ],
      "stateMutability": "view",
      "type": "function",
      "constant": true
    },
    {
      "inputs": [],
      "name": "symbol",
      "outputs": [
        {
          "internalType": "string",
          "name": "",
          "type": "string"
        }
      ],
      "stateMutability": "view",
      "type": "function",
      "constant": true
    },
    {
      "inputs": [
        {
          "internalType": "uint256",
          "name": "tokenId",
          "type": "uint256"
        }
      ],
      "name": "tokenURI",
      "outputs": [
        {
          "internalType": "string",
          "name": "",
          "type": "string"
        }
      ],
      "stateMutability": "view",
      "type": "function",
      "constant": true
    },
    {
      "inputs": [
        {
          "internalType": "address",
          "name": "from",
          "type": "address"
        },
        {
          "internalType": "address",
          "name": "to",
          "type": "address"
        },
        {
          "internalType": "uint256",
          "name": "tokenId",
          "type": "uint256"
        }
      ],
      "name": "transferFrom",
      "outputs": [],
      "stateMutability": "nonpayable",
      "type": "function"
    },
    {
      "inputs": [
        {
          "internalType": "address",
          "name": "newOwner",
          "type": "address"
        }
      ],
      "name": "transferOwnership",
      "outputs": [],
      "stateMutability": "nonpayable",
      "type": "function"
    },
    {
      "inputs": [
        {
          "internalType": "address",
          "name": "_backend",
          "type": "address"
        }
      ],
      "name": "setBackendAddress",
      "outputs": [],
      "stateMutability": "nonpayable",
      "type": "function"
    },
    {
      "inputs": [
        {
          "internalType": "address payable",
          "name": "developer",
          "type": "address"
        }
      ],
      "name": "createIssue",
      "outputs": [
        {
          "internalType": "uint256",
          "name": "",
          "type": "uint256"
        }
      ],
      "stateMutability": "payable",
      "type": "function",
      "payable": true
    },
    {
      "inputs": [
        {
          "internalType": "uint256",
          "name": "issueId",
          "type": "uint256"
        },
        {
          "internalType": "string",
          "name": "nftMetadataURI",
          "type": "string"
        }
      ],
      "name": "resolveIssue",
      "outputs": [],
      "stateMutability": "nonpayable",
      "type": "function"
    },
    {
      "inputs": [
        {
          "internalType": "uint256",
          "name": "issueId",
          "type": "uint256"
        }
      ],
      "name": "getIssue",
      "outputs": [
        {
          "internalType": "address",
          "name": "",
          "type": "address"
        },
        {
          "internalType": "address",
          "name": "",
          "type": "address"
        },
        {
          "internalType": "uint256",
          "name": "",
          "type": "uint256"
        },
        {
          "internalType": "bool",
          "name": "",
          "type": "bool"
        }
      ],
      "stateMutability": "view",
      "type": "function",
      "constant": true
    }
  ],
  "bytecode": "0x6080604052600060085560006009553480156200001b57600080fd5b506040518060400160405280601481526020017f4769744761696e73436f6e747269627574696f6e0000000000000000000000008152506040518060400160405280600381526020017f474743000000000000000000000000000000000000000000000000000000000081525081600090816200009991906200041c565b508060019081620000ab91906200041c565b505050620000ce620000c2620000d460201b60201c565b620000dc60201b60201c565b62000503565b600033905090565b6000600760009054906101000a900473ffffffffffffffffffffffffffffffffffffffff16905081600760006101000a81548173ffffffffffffffffffffffffffffffffffffffff021916908373ffffffffffffffffffffffffffffffffffffffff1602179055508173ffffffffffffffffffffffffffffffffffffffff168173ffffffffffffffffffffffffffffffffffffffff167f8be0079c531659141344cd1fd0a4f28419497f9722a3daafe3b4186f6b6457e060405160405180910390a35050565b600081519050919050565b7f4e487b7100000000000000000000000000000000000000000000000000000000600052604160045260246000fd5b7f4e487b7100000000000000000000000000000000000000000000000000000000600052602260045260246000fd5b600060028204905060018216806200022457607f821691505b6020821081036200023a5762000239620001dc565b5b50919050565b60008190508160005260206000209050919050565b60006020601f8301049050919050565b600082821b905092915050565b600060088302620002a47fffffffffffffffffffffffffffffffffffffffffffffffffffffffffffffffff8262000265565b620002b0868362000265565b95508019841693508086168417925050509392505050565b6000819050919050565b6000819050919050565b6000620002fd620002f7620002f184620002c8565b620002d2565b620002c8565b9050919050565b6000819050919050565b6200031983620002dc565b62000331620003288262000304565b84845462000272565b825550505050565b600090565b6200034862000339565b620003558184846200030e565b505050565b5b818110156200037d57620003716000826200033e565b6001810190506200035b565b5050565b601f821115620003cc57620003968162000240565b620003a18462000255565b81016020851015620003b1578190505b620003c9620003c08562000255565b8301826200035a565b50505b505050565b600082821c905092915050565b6000620003f160001984600802620003d1565b1980831691505092915050565b60006200040c8383620003de565b9150826002028217905092915050565b6200042782620001a2565b67ffffffffffffffff811115620004435762000442620001ad565b5b6200044f82546200020b565b6200045c82828562000381565b600060209050601f8311600181146200049457600084156200047f578287015190505b6200048b8582620003fe565b865550620004fb565b601f198416620004a48662000240565b60005b82811015620004ce57848901518255600182019150602085019450602081019050620004a7565b86831015620004ee5784890151620004ea601f891682620003de565b8355505b6001600288020188555050505b505050505050565b61388a80620005136000396000f3fe60806040526004361061014b5760003560e01c8063715018a6116100b6578063b88d4fde1161006f578063b88d4fde146104ad578063bc9f07d6146104d6578063c87b56dd14610501578063e574609e1461053e578063e985e9c514610569578063f2fde38b146105a65761014b565b8063715018a6146103ae5780638da5cb5b146103c557806395d89b41146103f0578063976b31131461041b578063a22cb4651461045b578063b630b427146104845761014b565b80631815ce7d116101085780631815ce7d1461028957806323b872dd146102b257806342842e0e146102db5780635f5091b4146103045780636352211e1461033457806370a08231146103715761014b565b806301ffc9a71461015057806304e15de51461018d57806306fdde03146101cd578063081812fc146101f8578063095ea7b3146102355780630d72d57f1461025e575b600080fd5b34801561015c57600080fd5b50610177600480360381019061017291906123bc565b6105cf565b6040516101849190612404565b60405180910390f35b34801561019957600080fd5b506101b460048036038101906101af9190612455565b610630565b6040516101c494939291906124d2565b60405180910390f35b3480156101d957600080fd5b506101e26106ad565b6040516101ef91906125a7565b60405180910390f35b34801561020457600080fd5b5061021f600480360381019061021a9190612455565b61073f565b60405161022c91906125ea565b60405180910390f35b34801561024157600080fd5b5061025c60048036038101906102579190612631565b610785565b005b34801561026a57600080fd5b5061027361089c565b60405161028091906125ea565b60405180910390f35b34801561029557600080fd5b506102b060048036038101906102ab9190612671565b6108c2565b005b3480156102be57600080fd5b506102d960048036038101906102d4919061269e565b61090e565b005b3480156102e757600080fd5b5061030260048036038101906102fd919061269e565b61096e565b005b61031e6004803603810190610319919061271d565b61098e565b60405161032b919061274a565b60405180910390f35b34801561034057600080fd5b5061035b60048036038101906103569190612455565b610b14565b60405161036891906125ea565b60405180910390f35b34801561037d57600080fd5b5061039860048036038101906103939190612671565b610b9a565b6040516103a5919061274a565b60405180910390f35b3480156103ba57600080fd5b506103c3610c51565b005b3480156103d157600080fd5b506103da610c65565b6040516103e791906125ea565b60405180910390f35b3480156103fc57600080fd5b50610405610c8f565b60405161041291906125a7565b60405180910390f35b34801561042757600080fd5b50610442600480360381019061043d9190612455565b610d21565b6040516104529493929190612765565b60405180910390f35b34801561046757600080fd5b50610482600480360381019061047d91906127d6565b610e3e565b005b34801561049057600080fd5b506104ab60048036038101906104a6919061294b565b610e54565b005b3480156104b957600080fd5b506104d460048036038101906104cf9190612a48565b611032565b005b3480156104e257600080fd5b506104eb611094565b6040516104f8919061274a565b60405180910390f35b34801561050d57600080fd5b5061052860048036038101906105239190612455565b61109a565b60405161053591906125a7565b60405180910390f35b34801561054a57600080fd5b506105536111ac565b604051610560919061274a565b60405180910390f35b34801561057557600080fd5b50610590600480360381019061058b9190612acb565b6111b2565b60405161059d9190612404565b60405180910390f35b3480156105b257600080fd5b506105cd60048036038101906105c89190612671565b611246565b005b6000634906490660e01b7bffffffffffffffffffffffffffffffffffffffffffffffffffffffff1916827bffffffffffffffffffffffffffffffffffffffffffffffffffffffff191614806106295750610628826112c9565b5b9050919050565b600b6020528060005260406000206000915090508060000160009054906101000a900473ffffffffffffffffffffffffffffffffffffffff16908060010160009054906101000a900473ffffffffffffffffffffffffffffffffffffffff16908060020154908060030160009054906101000a900460ff16905084565b6060600080546106bc90612b3a565b80601f01602080910402602001604051908101604052809291908181526020018280546106e890612b3a565b80156107355780601f1061070a57610100808354040283529160200191610735565b820191906000526020600020905b81548152906001019060200180831161071857829003601f168201915b5050505050905090565b600061074a826113ab565b6004600083815260200190815260200160002060009054906101000a900473ffffffffffffffffffffffffffffffffffffffff169050919050565b600061079082610b14565b90508073ffffffffffffffffffffffffffffffffffffffff168373ffffffffffffffffffffffffffffffffffffffff1603610800576040517f08c379a00000000000000000000000000000000000000000000000000000000081526004016107f790612bdd565b60405180910390fd5b8073ffffffffffffffffffffffffffffffffffffffff1661081f6113f6565b73ffffffffffffffffffffffffffffffffffffffff16148061084e575061084d816108486113f6565b6111b2565b5b61088d576040517f08c379a000000000000000000000000000000000000000000000000000000000815260040161088490612c6f565b60405180910390fd5b61089783836113fe565b505050565b600a60009054906101000a900473ffffffffffffffffffffffffffffffffffffffff1681565b6108ca6114b7565b80600a60006101000a81548173ffffffffffffffffffffffffffffffffffffffff021916908373ffffffffffffffffffffffffffffffffffffffff16021790555050565b61091f6109196113f6565b82611535565b61095e576040517f08c379a000000000000000000000000000000000000000000000000000000000815260040161095590612d01565b60405180910390fd5b6109698383836115ca565b505050565b61098983838360405180602001604052806000815250611032565b505050565b60008034116109d2576040517f08c379a00000000000000000000000000000000000000000000000000000000081526004016109c990612d6d565b60405180910390fd5b600860008154809291906109e590612dbc565b919050555060405180608001604052803373ffffffffffffffffffffffffffffffffffffffff1681526020018373ffffffffffffffffffffffffffffffffffffffff16815260200134815260200160001515815250600b6000600854815260200190815260200160002060008201518160000160006101000a81548173ffffffffffffffffffffffffffffffffffffffff021916908373ffffffffffffffffffffffffffffffffffffffff16021790555060208201518160010160006101000a81548173ffffffffffffffffffffffffffffffffffffffff021916908373ffffffffffffffffffffffffffffffffffffffff1602179055506040820151816002015560608201518160030160006101000a81548160ff0219169083151502179055509050506008549050919050565b600080610b20836118c3565b9050600073ffffffffffffffffffffffffffffffffffffffff168173ffffffffffffffffffffffffffffffffffffffff1603610b91576040517f08c379a0000000000000000000000000000000000000000000000000000000008152600401610b8890612e50565b60405180910390fd5b80915050919050565b60008073ffffffffffffffffffffffffffffffffffffffff168273ffffffffffffffffffffffffffffffffffffffff1603610c0a576040517f08c379a0000000000000000000000000000000000000000000000000000000008152600401610c0190612ee2565b60405180910390fd5b600360008373ffffffffffffffffffffffffffffffffffffffff1673ffffffffffffffffffffffffffffffffffffffff168152602001908152602001600020549050919050565b610c596114b7565b610c636000611900565b565b6000600760009054906101000a900473ffffffffffffffffffffffffffffffffffffffff16905090565b606060018054610c9e90612b3a565b80601f0160208091040260200160405190810160405280929190818152602001828054610cca90612b3a565b8015610d175780601f10610cec57610100808354040283529160200191610d17565b820191906000526020600020905b815481529060010190602001808311610cfa57829003601f168201915b5050505050905090565b6000806000806000600b60008781526020019081526020016000206040518060800160405290816000820160009054906101000a900473ffffffffffffffffffffffffffffffffffffffff1673ffffffffffffffffffffffffffffffffffffffff1673ffffffffffffffffffffffffffffffffffffffff1681526020016001820160009054906101000a900473ffffffffffffffffffffffffffffffffffffffff1673ffffffffffffffffffffffffffffffffffffffff1673ffffffffffffffffffffffffffffffffffffffff168152602001600282015481526020016003820160009054906101000a900460ff161515151581525050905080600001518160200151826040015183606001519450945094509450509193509193565b610e50610e496113f6565b83836119c6565b5050565b600a60009054906101000a900473ffffffffffffffffffffffffffffffffffffffff1673ffffffffffffffffffffffffffffffffffffffff163373ffffffffffffffffffffffffffffffffffffffff1614610ee4576040517f08c379a0000000000000000000000000000000000000000000000000000000008152600401610edb90612f4e565b60405180910390fd5b6000600b600084815260200190815260200160002090508060030160009054906101000a900460ff1615610f4d576040517f08c379a0000000000000000000000000000000000000000000000000000000008152600401610f4490612fba565b60405180910390fd5b60018160030160006101000a81548160ff0219169083151502179055508060010160009054906101000a900473ffffffffffffffffffffffffffffffffffffffff1673ffffffffffffffffffffffffffffffffffffffff166108fc82600201549081150290604051600060405180830381858888f19350505050158015610fd8573d6000803e3d6000fd5b5060096000815480929190610fec90612dbc565b91905055506110218160010160009054906101000a900473ffffffffffffffffffffffffffffffffffffffff16600954611b32565b61102d60095483611d4f565b505050565b61104361103d6113f6565b83611535565b611082576040517f08c379a000000000000000000000000000000000000000000000000000000000815260040161107990612d01565b60405180910390fd5b61108e84848484611df3565b50505050565b60085481565b60606110a5826113ab565b60006006600084815260200190815260200160002080546110c590612b3a565b80601f01602080910402602001604051908101604052809291908181526020018280546110f190612b3a565b801561113e5780601f106111135761010080835404028352916020019161113e565b820191906000526020600020905b81548152906001019060200180831161112157829003601f168201915b50505050509050600061114f611e4f565b905060008151036111645781925050506111a7565b600082511115611199578082604051602001611181929190613016565b604051602081830303815290604052925050506111a7565b6111a284611e66565b925050505b919050565b60095481565b6000600560008473ffffffffffffffffffffffffffffffffffffffff1673ffffffffffffffffffffffffffffffffffffffff16815260200190815260200160002060008373ffffffffffffffffffffffffffffffffffffffff1673ffffffffffffffffffffffffffffffffffffffff16815260200190815260200160002060009054906101000a900460ff16905092915050565b61124e6114b7565b600073ffffffffffffffffffffffffffffffffffffffff168173ffffffffffffffffffffffffffffffffffffffff16036112bd576040517f08c379a00000000000000000000000000000000000000000000000000000000081526004016112b4906130ac565b60405180910390fd5b6112c681611900565b50565b60007f80ac58cd000000000000000000000000000000000000000000000000000000007bffffffffffffffffffffffffffffffffffffffffffffffffffffffff1916827bffffffffffffffffffffffffffffffffffffffffffffffffffffffff1916148061139457507f5b5e139f000000000000000000000000000000000000000000000000000000007bffffffffffffffffffffffffffffffffffffffffffffffffffffffff1916827bffffffffffffffffffffffffffffffffffffffffffffffffffffffff1916145b806113a457506113a382611ece565b5b9050919050565b6113b481611f38565b6113f3576040517f08c379a00000000000000000000000000000000000000000000000000000000081526004016113ea90612e50565b60405180910390fd5b50565b600033905090565b816004600083815260200190815260200160002060006101000a81548173ffffffffffffffffffffffffffffffffffffffff021916908373ffffffffffffffffffffffffffffffffffffffff160217905550808273ffffffffffffffffffffffffffffffffffffffff1661147183610b14565b73ffffffffffffffffffffffffffffffffffffffff167f8c5be1e5ebec7d5bd14f71427d1e84f3dd0314c0f7b2291e5b200ac8c7c3b92560405160405180910390a45050565b6114bf6113f6565b73ffffffffffffffffffffffffffffffffffffffff166114dd610c65565b73ffffffffffffffffffffffffffffffffffffffff1614611533576040517f08c379a000000000000000000000000000000000000000000000000000000000815260040161152a90613118565b60405180910390fd5b565b60008061154183610b14565b90508073ffffffffffffffffffffffffffffffffffffffff168473ffffffffffffffffffffffffffffffffffffffff161480611583575061158281856111b2565b5b806115c157508373ffffffffffffffffffffffffffffffffffffffff166115a98461073f565b73ffffffffffffffffffffffffffffffffffffffff16145b91505092915050565b8273ffffffffffffffffffffffffffffffffffffffff166115ea82610b14565b73ffffffffffffffffffffffffffffffffffffffff1614611640576040517f08c379a0000000000000000000000000000000000000000000000000000000008152600401611637906131aa565b60405180910390fd5b600073ffffffffffffffffffffffffffffffffffffffff168273ffffffffffffffffffffffffffffffffffffffff16036116af576040517f08c379a00000000000000000000000000000000000000000000000000000000081526004016116a69061323c565b60405180910390fd5b6116bc8383836001611f79565b8273ffffffffffffffffffffffffffffffffffffffff166116dc82610b14565b73ffffffffffffffffffffffffffffffffffffffff1614611732576040517f08c379a0000000000000000000000000000000000000000000000000000000008152600401611729906131aa565b60405180910390fd5b6004600082815260200190815260200160002060006101000a81549073ffffffffffffffffffffffffffffffffffffffff02191690556001600360008573ffffffffffffffffffffffffffffffffffffffff1673ffffffffffffffffffffffffffffffffffffffff168152602001908152602001600020600082825403925050819055506001600360008473ffffffffffffffffffffffffffffffffffffffff1673ffffffffffffffffffffffffffffffffffffffff16815260200190815260200160002060008282540192505081905550816002600083815260200190815260200160002060006101000a81548173ffffffffffffffffffffffffffffffffffffffff021916908373ffffffffffffffffffffffffffffffffffffffff160217905550808273ffffffffffffffffffffffffffffffffffffffff168473ffffffffffffffffffffffffffffffffffffffff167fddf252ad1be2c89b69c2b068fc378daa952ba7f163c4a11628f55a4df523b3ef60405160405180910390a46118be8383836001611f7f565b505050565b60006002600083815260200190815260200160002060009054906101000a900473ffffffffffffffffffffffffffffffffffffffff169050919050565b6000600760009054906101000a900473ffffffffffffffffffffffffffffffffffffffff16905081600760006101000a81548173ffffffffffffffffffffffffffffffffffffffff021916908373ffffffffffffffffffffffffffffffffffffffff1602179055508173ffffffffffffffffffffffffffffffffffffffff168173ffffffffffffffffffffffffffffffffffffffff167f8be0079c531659141344cd1fd0a4f28419497f9722a3daafe3b4186f6b6457e060405160405180910390a35050565b8173ffffffffffffffffffffffffffffffffffffffff168373ffffffffffffffffffffffffffffffffffffffff1603611a34576040517f08c379a0000000000000000000000000000000000000000000000000000000008152600401611a2b906132a8565b60405180910390fd5b80600560008573ffffffffffffffffffffffffffffffffffffffff1673ffffffffffffffffffffffffffffffffffffffff16815260200190815260200160002060008473ffffffffffffffffffffffffffffffffffffffff1673ffffffffffffffffffffffffffffffffffffffff16815260200190815260200160002060006101000a81548160ff0219169083151502179055508173ffffffffffffffffffffffffffffffffffffffff168373ffffffffffffffffffffffffffffffffffffffff167f17307eab39ab6107e8899845ad3d59bd9653f200f220920489ca2b5937696c3183604051611b259190612404565b60405180910390a3505050565b600073ffffffffffffffffffffffffffffffffffffffff168273ffffffffffffffffffffffffffffffffffffffff1603611ba1576040517f08c379a0000000000000000000000000000000000000000000000000000000008152600401611b9890613314565b60405180910390fd5b611baa81611f38565b15611bea576040517f08c379a0000000000000000000000000000000000000000000000000000000008152600401611be190613380565b60405180910390fd5b611bf8600083836001611f79565b611c0181611f38565b15611c41576040517f08c379a0000000000000000000000000000000000000000000000000000000008152600401611c3890613380565b60405180910390fd5b6001600360008473ffffffffffffffffffffffffffffffffffffffff1673ffffffffffffffffffffffffffffffffffffffff16815260200190815260200160002060008282540192505081905550816002600083815260200190815260200160002060006101000a81548173ffffffffffffffffffffffffffffffffffffffff021916908373ffffffffffffffffffffffffffffffffffffffff160217905550808273ffffffffffffffffffffffffffffffffffffffff16600073ffffffffffffffffffffffffffffffffffffffff167fddf252ad1be2c89b69c2b068fc378daa952ba7f163c4a11628f55a4df523b3ef60405160405180910390a4611d4b600083836001611f7f565b5050565b611d5882611f38565b611d97576040517f08c379a0000000000000000000000000000000000000000000000000000000008152600401611d8e90613412565b60405180910390fd5b80600660008481526020019081526020016000209081611db791906135de565b507ff8e1a15aba9398e019f0b49df1a4fde98ee17ae345cb5f6b5e2c27f5033e8ce782604051611de7919061274a565b60405180910390a15050565b611dfe8484846115ca565b611e0a84848484611f85565b611e49576040517f08c379a0000000000000000000000000000000000000000000000000000000008152600401611e4090613722565b60405180910390fd5b50505050565b606060405180602001604052806000815250905090565b6060611e71826113ab565b6000611e7b611e4f565b90506000815111611e9b5760405180602001604052806000815250611ec6565b80611ea58461210c565b604051602001611eb6929190613016565b6040516020818303038152906040525b915050919050565b60007f01ffc9a7000000000000000000000000000000000000000000000000000000007bffffffffffffffffffffffffffffffffffffffffffffffffffffffff1916827bffffffffffffffffffffffffffffffffffffffffffffffffffffffff1916149050919050565b60008073ffffffffffffffffffffffffffffffffffffffff16611f5a836118c3565b73ffffffffffffffffffffffffffffffffffffffff1614159050919050565b50505050565b50505050565b6000611fa68473ffffffffffffffffffffffffffffffffffffffff166121da565b156120ff578373ffffffffffffffffffffffffffffffffffffffff1663150b7a02611fcf6113f6565b8786866040518563ffffffff1660e01b8152600401611ff19493929190613797565b6020604051808303816000875af192505050801561202d57506040513d601f19601f8201168201806040525081019061202a91906137f8565b60015b6120af573d806000811461205d576040519150601f19603f3d011682016040523d82523d6000602084013e612062565b606091505b5060008151036120a7576040517f08c379a000000000000000000000000000000000000000000000000000000000815260040161209e90613722565b60405180910390fd5b805181602001fd5b63150b7a0260e01b7bffffffffffffffffffffffffffffffffffffffffffffffffffffffff1916817bffffffffffffffffffffffffffffffffffffffffffffffffffffffff191614915050612104565b600190505b949350505050565b60606000600161211b846121fd565b01905060008167ffffffffffffffff81111561213a57612139612820565b5b6040519080825280601f01601f19166020018201604052801561216c5781602001600182028036833780820191505090505b509050600082602001820190505b6001156121cf578080600190039150507f3031323334353637383961626364656600000000000000000000000000000000600a86061a8153600a85816121c3576121c2613825565b5b0494506000850361217a575b819350505050919050565b6000808273ffffffffffffffffffffffffffffffffffffffff163b119050919050565b600080600090507a184f03e93ff9f4daa797ed6e38ed64bf6a1f010000000000000000831061225b577a184f03e93ff9f4daa797ed6e38ed64bf6a1f010000000000000000838161225157612250613825565b5b0492506040810190505b6d04ee2d6d415b85acef81000000008310612298576d04ee2d6d415b85acef8100000000838161228e5761228d613825565b5b0492506020810190505b662386f26fc1000083106122c757662386f26fc1000083816122bd576122bc613825565b5b0492506010810190505b6305f5e10083106122f0576305f5e10083816122e6576122e5613825565b5b0492506008810190505b612710831061231557612710838161230b5761230a613825565b5b0492506004810190505b60648310612338576064838161232e5761232d613825565b5b0492506002810190505b600a8310612347576001810190505b80915050919050565b6000604051905090565b600080fd5b600080fd5b60007fffffffff0000000000000000000000000000000000000000000000000000000082169050919050565b61239981612364565b81146123a457600080fd5b50565b6000813590506123b681612390565b92915050565b6000602082840312156123d2576123d161235a565b5b60006123e0848285016123a7565b91505092915050565b60008115159050919050565b6123fe816123e9565b82525050565b600060208201905061241960008301846123f5565b92915050565b6000819050919050565b6124328161241f565b811461243d57600080fd5b50565b60008135905061244f81612429565b92915050565b60006020828403121561246b5761246a61235a565b5b600061247984828501612440565b91505092915050565b600073ffffffffffffffffffffffffffffffffffffffff82169050919050565b60006124ad82612482565b9050919050565b6124bd816124a2565b82525050565b6124cc8161241f565b82525050565b60006080820190506124e760008301876124b4565b6124f460208301866124b4565b61250160408301856124c3565b61250e60608301846123f5565b95945050505050565b600081519050919050565b600082825260208201905092915050565b60005b83811015612551578082015181840152602081019050612536565b60008484015250505050565b6000601f19601f8301169050919050565b600061257982612517565b6125838185612522565b9350612593818560208601612533565b61259c8161255d565b840191505092915050565b600060208201905081810360008301526125c1818461256e565b905092915050565b60006125d482612482565b9050919050565b6125e4816125c9565b82525050565b60006020820190506125ff60008301846125db565b92915050565b61260e816125c9565b811461261957600080fd5b50565b60008135905061262b81612605565b92915050565b600080604083850312156126485761264761235a565b5b60006126568582860161261c565b925050602061266785828601612440565b9150509250929050565b6000602082840312156126875761268661235a565b5b60006126958482850161261c565b91505092915050565b6000806000606084860312156126b7576126b661235a565b5b60006126c58682870161261c565b93505060206126d68682870161261c565b92505060406126e786828701612440565b9150509250925092565b6126fa816124a2565b811461270557600080fd5b50565b600081359050612717816126f1565b92915050565b6000602082840312156127335761273261235a565b5b600061274184828501612708565b91505092915050565b600060208201905061275f60008301846124c3565b92915050565b600060808201905061277a60008301876125db565b61278760208301866125db565b61279460408301856124c3565b6127a160608301846123f5565b95945050505050565b6127b3816123e9565b81146127be57600080fd5b50565b6000813590506127d0816127aa565b92915050565b600080604083850312156127ed576127ec61235a565b5b60006127fb8582860161261c565b925050602061280c858286016127c1565b9150509250929050565b600080fd5b600080fd5b7f4e487b7100000000000000000000000000000000000000000000000000000000600052604160045260246000fd5b6128588261255d565b810181811067ffffffffffffffff8211171561287757612876612820565b5b80604052505050565b600061288a612350565b9050612896828261284f565b919050565b600067ffffffffffffffff8211156128b6576128b5612820565b5b6128bf8261255d565b9050602081019050919050565b82818337600083830152505050565b60006128ee6128e98461289b565b612880565b90508281526020810184848401111561290a5761290961281b565b5b6129158482856128cc565b509392505050565b600082601f83011261293257612931612816565b5b81356129428482602086016128db565b91505092915050565b600080604083850312156129625761296161235a565b5b600061297085828601612440565b925050602083013567ffffffffffffffff8111156129915761299061235f565b5b61299d8582860161291d565b9150509250929050565b600067ffffffffffffffff8211156129c2576129c1612820565b5b6129cb8261255d565b9050602081019050919050565b60006129eb6129e6846129a7565b612880565b905082815260208101848484011115612a0757612a0661281b565b5b612a128482856128cc565b509392505050565b600082601f830112612a2f57612a2e612816565b5b8135612a3f8482602086016129d8565b91505092915050565b60008060008060808587031215612a6257612a6161235a565b5b6000612a708782880161261c565b9450506020612a818782880161261c565b9350506040612a9287828801612440565b925050606085013567ffffffffffffffff811115612ab357612ab261235f565b5b612abf87828801612a1a565b91505092959194509250565b60008060408385031215612ae257612ae161235a565b5b6000612af08582860161261c565b9250506020612b018582860161261c565b9150509250929050565b7f4e487b7100000000000000000000000000000000000000000000000000000000600052602260045260246000fd5b60006002820490506001821680612b5257607f821691505b602082108103612b6557612b64612b0b565b5b50919050565b7f4552433732313a20617070726f76616c20746f2063757272656e74206f776e6560008201527f7200000000000000000000000000000000000000000000000000000000000000602082015250565b6000612bc7602183612522565b9150612bd282612b6b565b604082019050919050565b60006020820190508181036000830152612bf681612bba565b9050919050565b7f4552433732313a20617070726f76652063616c6c6572206973206e6f7420746f60008201527f6b656e206f776e6572206f7220617070726f76656420666f7220616c6c000000602082015250565b6000612c59603d83612522565b9150612c6482612bfd565b604082019050919050565b60006020820190508181036000830152612c8881612c4c565b9050919050565b7f4552433732313a2063616c6c6572206973206e6f7420746f6b656e206f776e6560008201527f72206f7220617070726f76656400000000000000000000000000000000000000602082015250565b6000612ceb602d83612522565b9150612cf682612c8f565b604082019050919050565b60006020820190508181036000830152612d1a81612cde565b9050919050565b7f426f756e7479206d7573742062652067726561746572207468616e2030000000600082015250565b6000612d57601d83612522565b9150612d6282612d21565b602082019050919050565b60006020820190508181036000830152612d8681612d4a565b9050919050565b7f4e487b7100000000000000000000000000000000000000000000000000000000600052601160045260246000fd5b6000612dc78261241f565b91507fffffffffffffffffffffffffffffffffffffffffffffffffffffffffffffffff8203612df957612df8612d8d565b5b600182019050919050565b7f4552433732313a20696e76616c696420746f6b656e2049440000000000000000600082015250565b6000612e3a601883612522565b9150612e4582612e04565b602082019050919050565b60006020820190508181036000830152612e6981612e2d565b9050919050565b7f4552433732313a2061646472657373207a65726f206973206e6f74206120766160008201527f6c6964206f776e65720000000000000000000000000000000000000000000000602082015250565b6000612ecc602983612522565b9150612ed782612e70565b604082019050919050565b60006020820190508181036000830152612efb81612ebf565b9050919050565b7f4e6f7420617574686f72697a6564000000000000000000000000000000000000600082015250565b6000612f38600e83612522565b9150612f4382612f02565b602082019050919050565b60006020820190508181036000830152612f6781612f2b565b9050919050565b7f497373756520616c726561647920636c61696d65640000000000000000000000600082015250565b6000612fa4601583612522565b9150612faf82612f6e565b602082019050919050565b60006020820190508181036000830152612fd381612f97565b9050919050565b600081905092915050565b6000612ff082612517565b612ffa8185612fda565b935061300a818560208601612533565b80840191505092915050565b60006130228285612fe5565b915061302e8284612fe5565b91508190509392505050565b7f4f776e61626c653a206e6577206f776e657220697320746865207a65726f206160008201527f6464726573730000000000000000000000000000000000000000000000000000602082015250565b6000613096602683612522565b91506130a18261303a565b604082019050919050565b600060208201905081810360008301526130c581613089565b9050919050565b7f4f776e61626c653a2063616c6c6572206973206e6f7420746865206f776e6572600082015250565b6000613102602083612522565b915061310d826130cc565b602082019050919050565b60006020820190508181036000830152613131816130f5565b9050919050565b7f4552433732313a207472616e736665722066726f6d20696e636f72726563742060008201527f6f776e6572000000000000000000000000000000000000000000000000000000602082015250565b6000613194602583612522565b915061319f82613138565b604082019050919050565b600060208201905081810360008301526131c381613187565b9050919050565b7f4552433732313a207472616e7366657220746f20746865207a65726f2061646460008201527f7265737300000000000000000000000000000000000000000000000000000000602082015250565b6000613226602483612522565b9150613231826131ca565b604082019050919050565b6000602082019050818103600083015261325581613219565b9050919050565b7f4552433732313a20617070726f766520746f2063616c6c657200000000000000600082015250565b6000613292601983612522565b915061329d8261325c565b602082019050919050565b600060208201905081810360008301526132c181613285565b9050919050565b7f4552433732313a206d696e7420746f20746865207a65726f2061646472657373600082015250565b60006132fe602083612522565b9150613309826132c8565b602082019050919050565b6000602082019050818103600083015261332d816132f1565b9050919050565b7f4552433732313a20746f6b656e20616c7265616479206d696e74656400000000600082015250565b600061336a601c83612522565b915061337582613334565b602082019050919050565b600060208201905081810360008301526133998161335d565b9050919050565b7f45524337323155524953746f726167653a2055524920736574206f66206e6f6e60008201527f6578697374656e7420746f6b656e000000000000000000000000000000000000602082015250565b60006133fc602e83612522565b9150613407826133a0565b604082019050919050565b6000602082019050818103600083015261342b816133ef565b9050919050565b60008190508160005260206000209050919050565b60006020601f8301049050919050565b600082821b905092915050565b6000600883026134947fffffffffffffffffffffffffffffffffffffffffffffffffffffffffffffffff82613457565b61349e8683613457565b95508019841693508086168417925050509392505050565b6000819050919050565b60006134db6134d66134d18461241f565b6134b6565b61241f565b9050919050565b6000819050919050565b6134f5836134c0565b613509613501826134e2565b848454613464565b825550505050565b600090565b61351e613511565b6135298184846134ec565b505050565b5b8181101561354d57613542600082613516565b60018101905061352f565b5050565b601f8211156135925761356381613432565b61356c84613447565b8101602085101561357b578190505b61358f61358785613447565b83018261352e565b50505b505050565b600082821c905092915050565b60006135b560001984600802613597565b1980831691505092915050565b60006135ce83836135a4565b9150826002028217905092915050565b6135e782612517565b67ffffffffffffffff811115613600576135ff612820565b5b61360a8254612b3a565b613615828285613551565b600060209050601f8311600181146136485760008415613636578287015190505b61364085826135c2565b8655506136a8565b601f19841661365686613432565b60005b8281101561367e57848901518255600182019150602085019450602081019050613659565b8683101561369b5784890151613697601f8916826135a4565b8355505b6001600288020188555050505b505050505050565b7f4552433732313a207472616e7366657220746f206e6f6e20455243373231526560008201527f63656976657220696d706c656d656e7465720000000000000000000000000000602082015250565b600061370c603283612522565b9150613717826136b0565b604082019050919050565b6000602082019050818103600083015261373b816136ff565b9050919050565b600081519050919050565b600082825260208201905092915050565b600061376982613742565b613773818561374d565b9350613783818560208601612533565b61378c8161255d565b840191505092915050565b60006080820190506137ac60008301876125db565b6137b960208301866125db565b6137c660408301856124c3565b81810360608301526137d8818461375e565b905095945050505050565b6000815190506137f281612390565b92915050565b60006020828403121561380e5761380d61235a565b5b600061381c848285016137e3565b91505092915050565b7f4e487b7100000000000000000000000000000000000000000000000000000000600052601260045260246000fdfea26469706673582212202bae3fd557dc6a01e0cd46c693ce136275ce712b47f250282c154d0f792c4b8e64736f6c63430008130033",
  "immutableReferences": {},
  "source": "// SPDX-License-Identifier: MIT\r\npragma solidity ^0.8.19;\r\n\r\nimport \"@openzeppelin/contracts/token/ERC721/extensions/ERC721URIStorage.sol\";\r\nimport \"@openzeppelin/contracts/access/Ownable.sol\";\r\n\r\ncontract GitGainsEscrow is ERC721URIStorage, Ownable {\r\n    uint256 public issueCounter = 0;\r\n    uint256 public nftCounter = 0;\r\n\r\n    address public backendAddress; // GitHub webhook handler\r\n\r\n    struct Issue {\r\n        address payable company;\r\n        address payable developer;\r\n        uint256 bountyAmount;\r\n        bool isClaimed;\r\n    }\r\n\r\n    mapping(uint256 => Issue) public issues;\r\n\r\n    constructor() ERC721(\"GitGainsContribution\", \"GGC\") {}\r\n\r\n    modifier onlyBackend() {\r\n        require(msg.sender == backendAddress, \"Not authorized\");\r\n        _;\r\n    }\r\n\r\n    function setBackendAddress(address _backend) external onlyOwner {\r\n        backendAddress = _backend;\r\n    }\r\n\r\n    function createIssue(address payable developer) external payable returns (uint256) {\r\n        require(msg.value > 0, \"Bounty must be greater than 0\");\r\n\r\n        issueCounter++;\r\n        issues[issueCounter] = Issue(payable(msg.sender), developer, msg.value, false);\r\n\r\n        return issueCounter;\r\n    }\r\n\r\n    // Automated call by backend (after PR merge)\r\n    function resolveIssue(uint256 issueId, string memory nftMetadataURI) external onlyBackend {\r\n        Issue storage issue = issues[issueId];\r\n        require(!issue.isClaimed, \"Issue already claimed\");\r\n\r\n        issue.isClaimed = true;\r\n\r\n        // Send bounty to developer\r\n        issue.developer.transfer(issue.bountyAmount);\r\n\r\n        // Mint NFT as proof of contribution\r\n        nftCounter++;\r\n        _mint(issue.developer, nftCounter);\r\n        _setTokenURI(nftCounter, nftMetadataURI);\r\n    }\r\n\r\n    function getIssue(uint256 issueId) public view returns (address, address, uint256, bool) {\r\n        Issue memory i = issues[issueId];\r\n        return (i.company, i.developer, i.bountyAmount, i.isClaimed);\r\n    }\r\n}\r\n",
  "sourcePath": "C:\\Build With India\\GitGains\\contracts\\GitGainsEscrow.sol",
  "compiler": {
    "name": "solc",
    "version": "0.8.19+commit.7dd6d404.Emscripten.clang"
  },
  "schemaVersion": "3.4.16",
  "updatedAt": "2025-04-06T01:31:37.500Z",
  "networkType": "ethereum",
  "devdoc": {
    "events": {
      "Approval(address,address,uint256)": {
        "details": "Emitted when `owner` enables `approved` to manage the `tokenId` token."
      },
      "ApprovalForAll(address,address,bool)": {
        "details": "Emitted when `owner` enables or disables (`approved`) `operator` to manage all of its assets."
      },
      "BatchMetadataUpdate(uint256,uint256)": {
        "details": "This event emits when the metadata of a range of tokens is changed. So that the third-party platforms such as NFT market could timely update the images and related attributes of the NFTs."
      },
      "MetadataUpdate(uint256)": {
        "details": "This event emits when the metadata of a token is changed. So that the third-party platforms such as NFT market could timely update the images and related attributes of the NFT."
      },
      "Transfer(address,address,uint256)": {
        "details": "Emitted when `tokenId` token is transferred from `from` to `to`."
      }
    },
    "kind": "dev",
    "methods": {
      "approve(address,uint256)": {
        "details": "See {IERC721-approve}."
      },
      "balanceOf(address)": {
        "details": "See {IERC721-balanceOf}."
      },
      "getApproved(uint256)": {
        "details": "See {IERC721-getApproved}."
      },
      "isApprovedForAll(address,address)": {
        "details": "See {IERC721-isApprovedForAll}."
      },
      "name()": {
        "details": "See {IERC721Metadata-name}."
      },
      "owner()": {
        "details": "Returns the address of the current owner."
      },
      "ownerOf(uint256)": {
        "details": "See {IERC721-ownerOf}."
      },
      "renounceOwnership()": {
        "details": "Leaves the contract without owner. It will not be possible to call `onlyOwner` functions. Can only be called by the current owner. NOTE: Renouncing ownership will leave the contract without an owner, thereby disabling any functionality that is only available to the owner."
      },
      "safeTransferFrom(address,address,uint256)": {
        "details": "See {IERC721-safeTransferFrom}."
      },
      "safeTransferFrom(address,address,uint256,bytes)": {
        "details": "See {IERC721-safeTransferFrom}."
      },
      "setApprovalForAll(address,bool)": {
        "details": "See {IERC721-setApprovalForAll}."
      },
      "supportsInterface(bytes4)": {
        "details": "See {IERC165-supportsInterface}"
      },
      "symbol()": {
        "details": "See {IERC721Metadata-symbol}."
      },
      "tokenURI(uint256)": {
        "details": "See {IERC721Metadata-tokenURI}."
      },
      "transferFrom(address,address,uint256)": {
        "details": "See {IERC721-transferFrom}."
      },
      "transferOwnership(address)": {
        "details": "Transfers ownership of the contract to a new account (`newOwner`). Can only be called by the current owner."
      }
    },
    "version": 1
  },
  "userdoc": {
    "kind": "user",
    "methods": {},
    "version": 1
  }
}